{
  "contractName": "Exchange",
  "abi": [
    {
      "constant": false,
      "inputs": [],
      "name": "depositEther",
      "outputs": [],
      "payable": true,
      "stateMutability": "payable",
      "type": "function"
    },
    {
      "constant": false,
      "inputs": [
        {
          "name": "amountInWei",
          "type": "uint256"
        }
      ],
      "name": "withdrawEther",
      "outputs": [],
      "payable": false,
      "stateMutability": "nonpayable",
      "type": "function"
    },
    {
      "constant": true,
      "inputs": [],
      "name": "getEthBalanceInWei",
      "outputs": [
        {
          "name": "",
          "type": "uint256"
        }
      ],
      "payable": false,
      "stateMutability": "view",
      "type": "function"
    },
    {
      "constant": false,
      "inputs": [
        {
          "name": "symbolName",
          "type": "string"
        },
        {
          "name": "erc20TokenAddress",
          "type": "address"
        }
      ],
      "name": "addToken",
      "outputs": [],
      "payable": false,
      "stateMutability": "nonpayable",
      "type": "function"
    },
    {
      "constant": true,
      "inputs": [
        {
          "name": "symbolName",
          "type": "string"
        }
      ],
      "name": "hasToken",
      "outputs": [
        {
          "name": "",
          "type": "bool"
        }
      ],
      "payable": false,
      "stateMutability": "view",
      "type": "function"
    },
    {
      "constant": false,
      "inputs": [
        {
          "name": "symbolName",
          "type": "string"
        },
        {
          "name": "amount",
          "type": "uint256"
        }
      ],
      "name": "depositToken",
      "outputs": [],
      "payable": false,
      "stateMutability": "nonpayable",
      "type": "function"
    },
    {
      "constant": false,
      "inputs": [
        {
          "name": "symbolName",
          "type": "string"
        },
        {
          "name": "amount",
          "type": "uint256"
        }
      ],
      "name": "withdrawToken",
      "outputs": [],
      "payable": false,
      "stateMutability": "nonpayable",
      "type": "function"
    },
    {
      "constant": true,
      "inputs": [
        {
          "name": "symbolName",
          "type": "string"
        }
      ],
      "name": "getBalance",
      "outputs": [
        {
          "name": "",
          "type": "uint256"
        }
      ],
      "payable": false,
      "stateMutability": "view",
      "type": "function"
    },
    {
      "constant": true,
      "inputs": [
        {
          "name": "symbolName",
          "type": "string"
        }
      ],
      "name": "getSellOrderBook",
      "outputs": [
        {
          "name": "",
          "type": "uint256[]"
        },
        {
          "name": "",
          "type": "uint256[]"
        }
      ],
      "payable": false,
      "stateMutability": "view",
      "type": "function"
    },
    {
      "constant": false,
      "inputs": [
        {
          "name": "symbolName",
          "type": "string"
        },
        {
          "name": "pricaInWei",
          "type": "uint256"
        },
        {
          "name": "amount",
          "type": "uint256"
        }
      ],
      "name": "buyToken",
      "outputs": [],
      "payable": false,
      "stateMutability": "nonpayable",
      "type": "function"
    },
    {
      "constant": false,
      "inputs": [
        {
          "name": "symbolName",
          "type": "string"
        },
        {
          "name": "priceInWei",
          "type": "uint256"
        },
        {
          "name": "amount",
          "type": "uint256"
        }
      ],
      "name": "sellToken",
      "outputs": [],
      "payable": false,
      "stateMutability": "nonpayable",
      "type": "function"
    },
    {
      "constant": false,
      "inputs": [
        {
          "name": "symbolName",
          "type": "string"
        },
        {
          "name": "isSellOrder",
          "type": "bool"
        },
        {
          "name": "priceInWei",
          "type": "uint256"
        },
        {
          "name": "offerKey",
          "type": "uint256"
        }
      ],
      "name": "cancelOrder",
      "outputs": [],
      "payable": false,
      "stateMutability": "nonpayable",
      "type": "function"
    }
  ],
  "bytecode": "0x6080604052336000806101000a81548173ffffffffffffffffffffffffffffffffffffffff021916908373ffffffffffffffffffffffffffffffffffffffff160217905550610a85806100536000396000f3006080604052600436106100ba576000357c0100000000000000000000000000000000000000000000000000000000900463ffffffff1680631a8eb72b146100bf57806333ad57e4146100ea5780633a51d2461461015d5780633bed33ce146101da5780635ab8ea3314610207578063728ff02914610284578063851030fe1461038a5780638ea008181461040757806398ea5fca14610488578063b0b22c2c14610492578063c97a413a1461051b578063d1a3b0251461058e575b600080fd5b3480156100cb57600080fd5b506100d4610617565b6040518082815260200191505060405180910390f35b3480156100f657600080fd5b5061015b600480360381019080803590602001908201803590602001908080601f01602080910402602001604051908101604052809392919081815260200183838082843782019150505050505091929192908035906020019092919050505061061c565b005b34801561016957600080fd5b506101c4600480360381019080803590602001908201803590602001908080601f0160208091040260200160405190810160405280939291908181526020018383808284378201915050505050509192919290505050610620565b6040518082815260200191505060405180910390f35b3480156101e657600080fd5b5061020560048036038101908080359060200190929190505050610627565b005b34801561021357600080fd5b50610282600480360381019080803590602001908201803590602001908080601f0160208091040260200160405190810160405280939291908181526020018383808284378201915050505050509192919290803590602001909291908035906020019092919050505061062a565b005b34801561029057600080fd5b506102eb600480360381019080803590602001908201803590602001908080601f016020809104026020016040519081016040528093929190818152602001838380828437820191505050505050919291929050505061062f565b604051808060200180602001838103835285818151815260200191508051906020019060200280838360005b83811015610332578082015181840152602081019050610317565b50505050905001838103825284818151815260200191508051906020019060200280838360005b83811015610374578082015181840152602081019050610359565b5050505090500194505050505060405180910390f35b34801561039657600080fd5b50610405600480360381019080803590602001908201803590602001908080601f01602080910402602001604051908101604052809392919081815260200183838082843782019150505050505091929192908035906020019092919080359060200190929190505050610637565b005b34801561041357600080fd5b5061046e600480360381019080803590602001908201803590602001908080601f016020809104026020016040519081016040528093929190818152602001838380828437820191505050505050919291929050505061063c565b604051808215151515815260200191505060405180910390f35b61049061066a565b005b34801561049e57600080fd5b50610519600480360381019080803590602001908201803590602001908080601f0160208091040260200160405190810160405280939291908181526020018383808284378201915050505050509192919290803573ffffffffffffffffffffffffffffffffffffffff16906020019092919050505061066c565b005b34801561052757600080fd5b5061058c600480360381019080803590602001908201803590602001908080601f0160208091040260200160405190810160405280939291908181526020018383808284378201915050505050509192919290803590602001909291905050506107b7565b005b34801561059a57600080fd5b50610615600480360381019080803590602001908201803590602001908080601f016020809104026020016040519081016040528093929190818152602001838380828437820191505050505050919291929080351515906020019092919080359060200190929190803590602001909291905050506107bb565b005b600090565b5050565b6000919050565b50565b505050565b606080915091565b505050565b600080610648836107c1565b905060008160ff16141561065f5760009150610664565b600191505b50919050565b565b6000809054906101000a900473ffffffffffffffffffffffffffffffffffffffff1673ffffffffffffffffffffffffffffffffffffffff163373ffffffffffffffffffffffffffffffffffffffff1614156107b3576106ca8261063c565b1515156106d657600080fd5b6002600081819054906101000a900460ff168092919060010191906101000a81548160ff021916908360ff160217905550508160016000600260009054906101000a900460ff1660ff1660ff16815260200190815260200160002060010190805190602001906107479291906109b4565b508060016000600260009054906101000a900460ff1660ff1660ff16815260200190815260200160002060000160006101000a81548173ffffffffffffffffffffffffffffffffffffffff021916908373ffffffffffffffffffffffffffffffffffffffff1602179055505b5050565b5050565b50505050565b600080600190505b600260009054906101000a900460ff1660ff168160ff161115156108265761080c600160008360ff1660ff16815260200190815260200160002060010184610831565b156108195780915061082b565b80806001019150506107c9565b600091505b50919050565b6000806060600085925084915081518380546001816001161561010002031660029004905014151561086657600093506109ab565b600090505b828054600181600116156101000203166002900490508110156109a657818181518110151561089657fe5b9060200101517f010000000000000000000000000000000000000000000000000000000000000090047f0100000000000000000000000000000000000000000000000000000000000000027effffffffffffffffffffffffffffffffffffffffffffffffffffffffffffff19168382815460018160011615610100020316600290048110151561092257fe5b8154600116156109415790600052602060002090602091828204019190065b9054901a7f0100000000000000000000000000000000000000000000000000000000000000027effffffffffffffffffffffffffffffffffffffffffffffffffffffffffffff191614151561099957600093506109ab565b808060010191505061086b565b600193505b50505092915050565b828054600181600116156101000203166002900490600052602060002090601f016020900481019282601f106109f557805160ff1916838001178555610a23565b82800160010185558215610a23579182015b82811115610a22578251825591602001919060010190610a07565b5b509050610a309190610a34565b5090565b610a5691905b80821115610a52576000816000905550600101610a3a565b5090565b905600a165627a7a72305820ee43a1babfd82196383dc2b2a717a4fd89ce4a53192abe4cd0d54f18f24642480029",
  "source": "pragma solidity ^0.4.24;\n\nimport \"./owned.sol\";\nimport \"./FixedSupplyToken.sol\";\n\ncontract Exchange is owned {\n    // Struct\n    struct Offer {\n         uint amount;\n         address who;\n    }\n    \n    struct OrderBook {\n        \n        uint higherPrice;\n        uint lowerPrice;\n        \n        mapping (uint => Offer) offers;\n        \n        uint offers_key;\n        uint offers_length;\n    }\n    \n    struct Token {\n        \n        address tokenContract;\n        \n        string symbolName;\n\n        mapping (uint => OrderBook) buyBook;\n        \n        uint curBuyPrice;\n        uint lowestBuyPrice;\n        uint amountBuyPrices;\n        \n        mapping (uint => OrderBook) sellBook;\n        uint curSellPrices;\n        uint highestSellPrice;\n        uint amountSellPrices;\n    }\n    \n    // mapping symbolNameIndex with Token\n    mapping (uint8 => Token) tokens; \n    uint8 symbolNameIndex;\n    \n    // Balance\n    mapping (address => mapping (uint8 => uint)) tokenBalanceForAddress;\n    \n    mapping (address => uint) balanceEthForAddress;\n    \n    // Event\n    \n    // Deposit and withdraw ether\n    function depositEther() payable {\n        \n    }\n    \n    function withdrawEther(uint amountInWei) {\n        \n    }\n    \n    function getEthBalanceInWei() constant returns (uint){\n        \n    }\n    \n    // Token management\n    function addToken(string symbolName, address erc20TokenAddress) onlyowner {\n        require(!hasToken(symbolName));\n        symbolNameIndex++;\n        tokens[symbolNameIndex].symbolName = symbolName;\n        tokens[symbolNameIndex].tokenContract = erc20TokenAddress;\n    }\n    \n    function hasToken(string symbolName) constant returns (bool) {\n        uint8 index = getSymbolIndex(symbolName);\n        if (index == 0) {\n            return false;\n        }\n        return true;\n    }\n\n    function getSymbolIndex(string symbolName) internal returns (uint8) {\n        for(uint8 i = 1; i <= symbolNameIndex; i++) {\n            if (stringsEqual(tokens[i].symbolName, symbolName)) {\n                return i;\n            }\n        }\n        return 0;\n    }\n    \n    //string comparision function\n    function stringsEqual(string storage _a, string memory _b) internal returns (bool) {\n        bytes storage a = bytes(_a);\n        bytes memory b = bytes(_b);\n        if (a.length != b.length) {\n            return false;\n        }\n        for(uint i = 0; i < a.length; i++)\n            if (a[i] != b[i])\n                return false;\n        return true;\n        // return keccak256(_a) == keccak256(_b);\n    }\n    \n    // Deposit and withdrawal Token\n    function depositToken(string symbolName, uint amount) {\n        \n    }\n    \n    function withdrawToken(string symbolName, uint amount) {\n        \n    }\n    \n    function getBalance(string symbolName) constant returns (uint) {\n        \n    }\n    \n    // Order Book - Ask Order\n    function getSellOrderBook(string symbolName) constant returns (uint[], uint[]) {\n        \n    }\n    \n    // New Order - Bid Order\n    function buyToken(string symbolName, uint pricaInWei, uint amount) {\n        \n    }\n    \n    // New Order - Ask Order\n    function sellToken(string symbolName, uint priceInWei, uint amount) {\n        \n    }\n    \n    // Cancel Limit Order Logic\n    function cancelOrder(string symbolName, bool isSellOrder, uint priceInWei, uint offerKey) {\n        \n    }\n}",
  "sourcePath": "/home/manh/Desktop/learn-truffle-udemy/contracts/Exchange.sol",
  "compiler": {
    "name": "solc",
    "version": "0.4.24+commit.e67f0147.Emscripten.clang"
  },
  "schemaVersion": "2.0.1",
  "updatedAt": "2018-10-03T10:23:56.863Z"
}